{
  "contractName": "BoxingOracle",
  "abi": [
    {
      "anonymous": false,
      "inputs": [
        {
          "indexed": true,
          "internalType": "address",
          "name": "previousOwner",
          "type": "address"
        },
        {
          "indexed": true,
          "internalType": "address",
          "name": "newOwner",
          "type": "address"
        }
      ],
      "name": "OwnershipTransferred",
      "type": "event"
    },
    {
      "constant": true,
      "inputs": [],
      "name": "owner",
      "outputs": [
        {
          "internalType": "address",
          "name": "",
          "type": "address"
        }
      ],
      "payable": false,
      "stateMutability": "view",
      "type": "function"
    },
    {
      "constant": false,
      "inputs": [
        {
          "internalType": "address",
          "name": "newOwner",
          "type": "address"
        }
      ],
      "name": "transferOwnership",
      "outputs": [],
      "payable": false,
      "stateMutability": "nonpayable",
      "type": "function"
    },
    {
      "constant": true,
      "inputs": [
        {
          "internalType": "bytes32",
          "name": "_matchId",
          "type": "bytes32"
        }
      ],
      "name": "matchExists",
      "outputs": [
        {
          "internalType": "bool",
          "name": "",
          "type": "bool"
        }
      ],
      "payable": false,
      "stateMutability": "view",
      "type": "function"
    },
    {
      "constant": false,
      "inputs": [
        {
          "internalType": "string",
          "name": "_name",
          "type": "string"
        },
        {
          "internalType": "string",
          "name": "_participants",
          "type": "string"
        },
        {
          "internalType": "uint8",
          "name": "_participantCount",
          "type": "uint8"
        },
        {
          "internalType": "uint256",
          "name": "_date",
          "type": "uint256"
        }
      ],
      "name": "addMatch",
      "outputs": [
        {
          "internalType": "bytes32",
          "name": "",
          "type": "bytes32"
        }
      ],
      "payable": false,
      "stateMutability": "nonpayable",
      "type": "function"
    },
    {
      "constant": false,
      "inputs": [
        {
          "internalType": "bytes32",
          "name": "_matchId",
          "type": "bytes32"
        },
        {
          "internalType": "enum BoxingOracle.MatchOutcome",
          "name": "_outcome",
          "type": "uint8"
        },
        {
          "internalType": "int8",
          "name": "_winner",
          "type": "int8"
        }
      ],
      "name": "declareOutcome",
      "outputs": [],
      "payable": false,
      "stateMutability": "nonpayable",
      "type": "function"
    },
    {
      "constant": true,
      "inputs": [],
      "name": "getPendingMatches",
      "outputs": [
        {
          "internalType": "bytes32[]",
          "name": "",
          "type": "bytes32[]"
        }
      ],
      "payable": false,
      "stateMutability": "view",
      "type": "function"
    },
    {
      "constant": true,
      "inputs": [],
      "name": "getAllMatches",
      "outputs": [
        {
          "internalType": "bytes32[]",
          "name": "",
          "type": "bytes32[]"
        }
      ],
      "payable": false,
      "stateMutability": "view",
      "type": "function"
    },
    {
      "constant": true,
      "inputs": [
        {
          "internalType": "bytes32",
          "name": "_matchId",
          "type": "bytes32"
        }
      ],
      "name": "getMatch",
      "outputs": [
        {
          "internalType": "bytes32",
          "name": "id",
          "type": "bytes32"
        },
        {
          "internalType": "string",
          "name": "name",
          "type": "string"
        },
        {
          "internalType": "string",
          "name": "participants",
          "type": "string"
        },
        {
          "internalType": "uint8",
          "name": "participantCount",
          "type": "uint8"
        },
        {
          "internalType": "uint256",
          "name": "date",
          "type": "uint256"
        },
        {
          "internalType": "enum BoxingOracle.MatchOutcome",
          "name": "outcome",
          "type": "uint8"
        },
        {
          "internalType": "int8",
          "name": "winner",
          "type": "int8"
        }
      ],
      "payable": false,
      "stateMutability": "view",
      "type": "function"
    },
    {
      "constant": true,
      "inputs": [
        {
          "internalType": "bool",
          "name": "_pending",
          "type": "bool"
        }
      ],
      "name": "getMostRecentMatch",
      "outputs": [
        {
          "internalType": "bytes32",
          "name": "id",
          "type": "bytes32"
        },
        {
          "internalType": "string",
          "name": "name",
          "type": "string"
        },
        {
          "internalType": "string",
          "name": "participants",
          "type": "string"
        },
        {
          "internalType": "uint8",
          "name": "participantCount",
          "type": "uint8"
        },
        {
          "internalType": "uint256",
          "name": "date",
          "type": "uint256"
        },
        {
          "internalType": "enum BoxingOracle.MatchOutcome",
          "name": "outcome",
          "type": "uint8"
        },
        {
          "internalType": "int8",
          "name": "winner",
          "type": "int8"
        }
      ],
      "payable": false,
      "stateMutability": "view",
      "type": "function"
    },
    {
      "constant": true,
      "inputs": [],
      "name": "testConnection",
      "outputs": [
        {
          "internalType": "bool",
          "name": "",
          "type": "bool"
        }
      ],
      "payable": false,
      "stateMutability": "pure",
      "type": "function"
    },
    {
      "constant": true,
      "inputs": [],
      "name": "getAddress",
      "outputs": [
        {
          "internalType": "address",
          "name": "",
          "type": "address"
        }
      ],
      "payable": false,
      "stateMutability": "view",
      "type": "function"
    },
    {
      "constant": false,
      "inputs": [],
      "name": "addTestData",
      "outputs": [],
      "payable": false,
      "stateMutability": "nonpayable",
      "type": "function"
    }
  ],
  "bytecode": "0x6080604052336000806101000a81548173ffffffffffffffffffffffffffffffffffffffff021916908373ffffffffffffffffffffffffffffffffffffffff160217905550611dec806100536000396000f3fe608060405234801561001057600080fd5b50600436106100b45760003560e01c8063a212b45411610071578063a212b45414610393578063a93452401461039d578063bb2b0f58146103e3578063c17c5a4514610535578063f2fde38b14610594578063fcc6077d146105d8576100b4565b80633412a15c146100b957806338cc4831146100db5780635f29d4b1146101255780637898d334146101845780638da5cb5b146101cc578063a1d2d31414610216575b600080fd5b6100c1610728565b604051808215151515815260200191505060405180910390f35b6100e3610731565b604051808273ffffffffffffffffffffffffffffffffffffffff1673ffffffffffffffffffffffffffffffffffffffff16815260200191505060405180910390f35b61012d610739565b6040518080602001828103825283818151815260200191508051906020019060200280838360005b83811015610170578082015181840152602081019050610155565b505050509050019250505060405180910390f35b6101ca6004803603606081101561019a57600080fd5b8101908080359060200190929190803560ff169060200190929190803560000b90602001909291905050506108af565b005b6101d4610a03565b604051808273ffffffffffffffffffffffffffffffffffffffff1673ffffffffffffffffffffffffffffffffffffffff16815260200191505060405180910390f35b61037d6004803603608081101561022c57600080fd5b810190808035906020019064010000000081111561024957600080fd5b82018360208201111561025b57600080fd5b8035906020019184600183028401116401000000008311171561027d57600080fd5b91908080601f016020809104026020016040519081016040528093929190818152602001838380828437600081840152601f19601f820116905080830192505050505050509192919290803590602001906401000000008111156102e057600080fd5b8201836020820111156102f257600080fd5b8035906020019184600183028401116401000000008311171561031457600080fd5b91908080601f016020809104026020016040519081016040528093929190818152602001838380828437600081840152601f19601f820116905080830192505050505050509192919290803560ff16906020019092919080359060200190929190505050610a28565b6040518082815260200191505060405180910390f35b61039b610ca3565b005b6103c9600480360360208110156103b357600080fd5b81019080803590602001909291905050506114b1565b604051808215151515815260200191505060405180910390f35b610411600480360360208110156103f957600080fd5b810190808035151590602001909291905050506114ee565b6040518088815260200180602001806020018760ff1660ff16815260200186815260200185600381111561044157fe5b60ff1681526020018460000b60000b8152602001838103835289818151815260200191508051906020019080838360005b8381101561048d578082015181840152602081019050610472565b50505050905090810190601f1680156104ba5780820380516001836020036101000a031916815260200191505b50838103825288818151815260200191508051906020019080838360005b838110156104f35780820151818401526020810190506104d8565b50505050905090810190601f1680156105205780820380516001836020036101000a031916815260200191505b50995050505050505050505060405180910390f35b61053d611569565b6040518080602001828103825283818151815260200191508051906020019060200280838360005b83811015610580578082015181840152602081019050610565565b505050509050019250505060405180910390f35b6105d6600480360360208110156105aa57600080fd5b81019080803573ffffffffffffffffffffffffffffffffffffffff169060200190929190505050611621565b005b610604600480360360208110156105ee57600080fd5b8101908080359060200190929190505050611772565b6040518088815260200180602001806020018760ff1660ff16815260200186815260200185600381111561063457fe5b60ff1681526020018460000b60000b8152602001838103835289818151815260200191508051906020019080838360005b83811015610680578082015181840152602081019050610665565b50505050905090810190601f1680156106ad5780820380516001836020036101000a031916815260200191505b50838103825288818151815260200191508051906020019080838360005b838110156106e65780820151818401526020810190506106cb565b50505050905090810190601f1680156107135780820380516001836020036101000a031916815260200191505b50995050505050505050505060405180910390f35b60006001905090565b600030905090565b6060600080905060008090505b6001805490508110156107b3576000600381111561076057fe5b6001828154811061076d57fe5b906000526020600020906006020160050160009054906101000a900460ff16600381111561079757fe5b14156107a65781806001019250505b8080600101915050610746565b506060816040519080825280602002602001820160405280156107e55781602001602082028038833980820191505090505b50905060008211156108a7576000809050600060018054905090505b60008111156108a4576000600381111561081757fe5b60018083038154811061082657fe5b906000526020600020906006020160050160009054906101000a900460ff16600381111561085057fe5b14156108965760018082038154811061086557fe5b90600052602060002090600602016000015483838060010194508151811061088957fe5b6020026020010181815250505b808060019003915050610801565b50505b809250505090565b6000809054906101000a900473ffffffffffffffffffffffffffffffffffffffff1673ffffffffffffffffffffffffffffffffffffffff163373ffffffffffffffffffffffffffffffffffffffff161461090857600080fd5b610911836114b1565b61091a57600080fd5b6000610925846119b8565b905060006001828154811061093657fe5b9060005260206000209060060201905060038081111561095257fe5b84600381111561095e57fe5b14156109985760008360000b1215801561098e57508260ff168160030160009054906101000a900460ff1660ff16115b61099757600080fd5b5b838160050160006101000a81548160ff021916908360038111156109b857fe5b02179055506003808111156109c957fe5b8460038111156109d557fe5b14156109fc57828160050160016101000a81548160ff021916908360000b60ff1602179055505b5050505050565b6000809054906101000a900473ffffffffffffffffffffffffffffffffffffffff1681565b60008060009054906101000a900473ffffffffffffffffffffffffffffffffffffffff1673ffffffffffffffffffffffffffffffffffffffff163373ffffffffffffffffffffffffffffffffffffffff1614610a8357600080fd5b60008584846040516020018084805190602001908083835b60208310610abe5780518252602082019150602081019050602083039250610a9b565b6001836020036101000a0380198251168184511680821785525050505050509050018360ff1660ff1660f81b81526001018281526020019350505050604051602081830303815290604052805190602001209050610b1b816114b1565b15610b2557600080fd5b60006001806040518060e001604052808581526020018a81526020018981526020018860ff16815260200187815260200160006003811115610b6357fe5b81526020017fffffffffffffffffffffffffffffffffffffffffffffffffffffffffffffffff60000b81525090806001815401808255809150509060018203906000526020600020906006020160009091929091909150600082015181600001556020820151816001019080519060200190610be0929190611cef565b506040820151816002019080519060200190610bfd929190611cef565b5060608201518160030160006101000a81548160ff021916908360ff1602179055506080820151816004015560a08201518160050160006101000a81548160ff02191690836003811115610c4d57fe5b021790555060c08201518160050160016101000a81548160ff021916908360000b60ff16021790555050500390506001810160026000848152602001908152602001600020819055508192505050949350505050565b6000809054906101000a900473ffffffffffffffffffffffffffffffffffffffff1673ffffffffffffffffffffffffffffffffffffffff163373ffffffffffffffffffffffffffffffffffffffff1614610cfc57600080fd5b610dd66040518060400160405280601781526020017f506163717569616f2076732e204d6179576561746865720000000000000000008152506040518060400160405280601381526020017f506163717569616f7c4d617977656174686572000000000000000000000000008152506002610dd16040518061010001604052806107e261ffff168152602001600860ff168152602001600d60ff168152602001600060ff168152602001600060ff168152602001600060ff168152602001600060ff168152602001600060ff168152506119d8565b610a28565b50610eb16040518060400160405280601781526020017f4d6163717569616f2076732e20506179776561746865720000000000000000008152506040518060400160405280601381526020017f4d6163717569616f7c50617977656174686572000000000000000000000000008152506002610eac6040518061010001604052806107e261ffff168152602001600860ff168152602001600f60ff168152602001600060ff168152602001600060ff168152602001600060ff168152602001600060ff168152602001600060ff168152506119d8565b610a28565b50610f8c6040518060400160405280601881526020017f506163776561746865722076732e204d616361727468757200000000000000008152506040518060400160405280601481526020017f506163776561746865727c4d61636172746875720000000000000000000000008152506002610f876040518061010001604052806107e261ffff168152602001600960ff168152602001600360ff168152602001600060ff168152602001600060ff168152602001600060ff168152602001600060ff168152602001600060ff168152506119d8565b610a28565b506110676040518060400160405280601481526020017f4d61636172746875722076732e205472756d616e0000000000000000000000008152506040518060400160405280601081526020017f4d61636172746875727c5472756d616e0000000000000000000000000000000081525060026110626040518061010001604052806107e261ffff168152602001600960ff168152602001600360ff168152602001600060ff168152602001600060ff168152602001600060ff168152602001600060ff168152602001600060ff168152506119d8565b610a28565b506111426040518060400160405280601481526020017f4d6163617175652076732e2050726567756e746f0000000000000000000000008152506040518060400160405280601081526020017f4d6163617175657c50726567756e746f00000000000000000000000000000000815250600261113d6040518061010001604052806107e261ffff168152602001600960ff168152602001601560ff168152602001600060ff168152602001600060ff168152602001600060ff168152602001600060ff168152602001600060ff168152506119d8565b610a28565b5061121d6040518060400160405280601781526020017f46617273776f7274682076732e205765726e7374726f6d0000000000000000008152506040518060400160405280601381526020017f46617273776f7274687c5765726e7374726f6d0000000000000000000000000081525060026112186040518061010001604052806107e261ffff168152602001600960ff168152602001601d60ff168152602001600060ff168152602001600060ff168152602001600060ff168152602001600060ff168152602001600060ff168152506119d8565b610a28565b506112f86040518060400160405280601581526020017f466f7274696e627261732076732e2048616d6c657400000000000000000000008152506040518060400160405280601181526020017f466f7274696e627261737c48616d6c657400000000000000000000000000000081525060026112f36040518061010001604052806107e261ffff168152602001600a60ff168152602001600a60ff168152602001600060ff168152602001600060ff168152602001600060ff168152602001600060ff168152602001600060ff168152506119d8565b610a28565b506113d36040518060400160405280601581526020017f466f6f6c69636c652076732e2050726574656e646f00000000000000000000008152506040518060400160405280601181526020017f466f6f6c69636c657c50726574656e646f00000000000000000000000000000081525060026113ce6040518061010001604052806107e261ffff168152602001600b60ff168152602001600b60ff168152602001600060ff168152602001600060ff168152602001600060ff168152602001600060ff168152602001600060ff168152506119d8565b610a28565b506114ae6040518060400160405280601581526020017f506172746869616e2076732e20536379746869616e00000000000000000000008152506040518060400160405280601181526020017f506172746869616e7c536379746869616e00000000000000000000000000000081525060026114a96040518061010001604052806107e261ffff168152602001600b60ff168152602001600c60ff168152602001600060ff168152602001600060ff168152602001600060ff168152602001600060ff168152602001600060ff168152506119d8565b610a28565b50565b60008060018054905014156114c957600090506114e9565b600060026000848152602001908152602001600020549050600081119150505b919050565b600060608060008060008060008060001b90506060891561151857611511610739565b9050611523565b611520611569565b90505b600081511115611545578060008151811061153a57fe5b602002602001015191505b61154e82611772565b98509850985098509850985098505050919395979092949650565b6060806001805490506040519080825280602002602001820160405280156115a05781602001602082028038833980820191505090505b5090506000600180549050111561161a576000809050600060018054905090505b6000811115611617576001808203815481106115d957fe5b9060005260206000209060060201600001548383806001019450815181106115fd57fe5b6020026020010181815250508080600190039150506115c1565b50505b8091505090565b6000809054906101000a900473ffffffffffffffffffffffffffffffffffffffff1673ffffffffffffffffffffffffffffffffffffffff163373ffffffffffffffffffffffffffffffffffffffff161461167a57600080fd5b600073ffffffffffffffffffffffffffffffffffffffff168173ffffffffffffffffffffffffffffffffffffffff1614156116b457600080fd5b8073ffffffffffffffffffffffffffffffffffffffff166000809054906101000a900473ffffffffffffffffffffffffffffffffffffffff1673ffffffffffffffffffffffffffffffffffffffff167f8be0079c531659141344cd1fd0a4f28419497f9722a3daafe3b4186f6b6457e060405160405180910390a3806000806101000a81548173ffffffffffffffffffffffffffffffffffffffff021916908373ffffffffffffffffffffffffffffffffffffffff16021790555050565b6000606080600080600080611786886114b1565b1561194657600060016117988a6119b8565b815481106117a257fe5b90600052602060002090600602019050806000015481600101826002018360030160009054906101000a900460ff1684600401548560050160009054906101000a900460ff168660050160019054906101000a900460000b858054600181600116156101000203166002900480601f01602080910402602001604051908101604052809291908181526020018280546001816001161561010002031660029004801561188f5780601f106118645761010080835404028352916020019161188f565b820191906000526020600020905b81548152906001019060200180831161187257829003601f168201915b50505050509550848054600181600116156101000203166002900480601f01602080910402602001604051908101604052809291908181526020018280546001816001161561010002031660029004801561192b5780601f106119005761010080835404028352916020019161192b565b820191906000526020600020905b81548152906001019060200180831161190e57829003601f168201915b505050505094509750975097509750975097509750506119ad565b8760008060007fffffffffffffffffffffffffffffffffffffffffffffffffffffffffffffffff6040518060200160405280600081525093929190604051806020016040528060008152509392919083935082925080905096509650965096509650965096505b919395979092949650565b600060016002600084815260200190815260200160002054039050919050565b6000806107b290505b826000015161ffff168161ffff161015611a28576119fe81611c7a565b15611a11576301e2850082019150611a1b565b6301e13380820191505b80806001019150506119e1565b611a30611d6f565b601f816000600c8110611a3f57fe5b602002019060ff16908160ff1681525050611a5d8460000151611c7a565b15611a8757601d816001600c8110611a7157fe5b602002019060ff16908160ff1681525050611aa8565b601c816001600c8110611a9657fe5b602002019060ff16908160ff16815250505b601f816002600c8110611ab757fe5b602002019060ff16908160ff1681525050601e816003600c8110611ad757fe5b602002019060ff16908160ff1681525050601f816004600c8110611af757fe5b602002019060ff16908160ff1681525050601e816005600c8110611b1757fe5b602002019060ff16908160ff1681525050601f816006600c8110611b3757fe5b602002019060ff16908160ff1681525050601f816007600c8110611b5757fe5b602002019060ff16908160ff1681525050601e816008600c8110611b7757fe5b602002019060ff16908160ff1681525050601f816009600c8110611b9757fe5b602002019060ff16908160ff1681525050601e81600a600c8110611bb757fe5b602002019060ff16908160ff1681525050601f81600b600c8110611bd757fe5b602002019060ff16908160ff1681525050600191505b836020015160ff168261ffff161015611c3157806001830361ffff16600c8110611c1357fe5b602002015160ff166201518002830192508180600101925050611bed565b600184604001510360ff16620151800283019250836060015160ff16610e100283019250836080015160ff16603c02830192508360a0015160ff16830192508292505050919050565b60008060048361ffff1681611c8b57fe5b0661ffff1614611c9e5760009050611cea565b600060648361ffff1681611cae57fe5b0661ffff1614611cc15760019050611cea565b60006101908361ffff1681611cd257fe5b0661ffff1614611ce55760009050611cea565b600190505b919050565b828054600181600116156101000203166002900490600052602060002090601f016020900481019282601f10611d3057805160ff1916838001178555611d5e565b82800160010185558215611d5e579182015b82811115611d5d578251825591602001919060010190611d42565b5b509050611d6b9190611d92565b5090565b604051806101800160405280600c90602082028038833980820191505090505090565b611db491905b80821115611db0576000816000905550600101611d98565b5090565b9056fea265627a7a723158209230acdf6875a49709c566e27b77c897752ea34c07a672c6cfdaf24afb33be0164736f6c63430005100032",
  "source": "\r\npragma solidity ^0.5.16;\r\n\r\nimport \"./Ownable.sol\";\r\nimport \"./DateLib.sol\";\r\n\r\n/*\r\nTEST: \r\n- testConnection \r\n- getAddress\r\n- matchExists(0) \r\n- matchExists(1)\r\n- declareOutcome(0, 2)\r\n- getPendingMatches()\r\n- getAllMatches()\r\n- getMatch(0)\r\n- getMostRecentMatch(true)\r\n- addTestData()\r\n- matchExists(0) \r\n- matchExists(1)\r\n- declareOutcome(0, 2)\r\n- getPendingMatches()               \r\n- getAllMatches()                   \r\n- getMatch(0)\r\n- getMostRecentMatch(true)\r\n- getMostRecentMatch(false) \r\n- getMatch(0x...)                   \r\n- declareOutcome(0x..., 2)              \r\n- getMostRecentMatch(true)\r\n- getMostRecentMatch(false)\r\n- getMatch(0x...)              \r\n- add duplicate match      \r\n*/\r\n\r\n/// @title BoxingOracle\r\n/// @author John R. Kosinski\r\n/// @notice Collects and provides information on boxing matches and their outcomes \r\ncontract BoxingOracle is Ownable {\r\n    Match[] matches; \r\n    mapping(bytes32 => uint) matchIdToIndex; \r\n\r\n    using DateLib for DateLib.DateTime;\r\n\r\n\r\n    //defines a match along with its outcome\r\n    struct Match {\r\n        bytes32 id;\r\n        string name;\r\n        string participants;\r\n        uint8 participantCount;\r\n        uint date; \r\n        MatchOutcome outcome;\r\n        int8 winner;\r\n    }\r\n\r\n    //possible match outcomes \r\n    enum MatchOutcome {\r\n        Pending,    //match has not been fought to decision\r\n        Underway,   //match has started & is underway\r\n        Draw,       //anything other than a clear winner (e.g. cancelled)\r\n        Decided     //index of participant who is the winner \r\n    }\r\n\r\n\r\n    /// @notice returns the array index of the match with the given id \r\n    /// @dev if the match id is invalid, then the return value will be incorrect and may cause error; you must call matchExists(_matchId) first!\r\n    /// @param _matchId the match id to get\r\n    /// @return an array index \r\n    function _getMatchIndex(bytes32 _matchId) private view returns (uint) {\r\n        return matchIdToIndex[_matchId]-1; \r\n    }\r\n\r\n\r\n    /// @notice determines whether a match exists with the given id \r\n    /// @param _matchId the match id to test\r\n    /// @return true if match exists and id is valid\r\n    function matchExists(bytes32 _matchId) public view returns (bool) {\r\n        if (matches.length == 0)\r\n            return false;\r\n        uint index = matchIdToIndex[_matchId]; \r\n        return (index > 0); \r\n    }\r\n\r\n    /// @notice puts a new pending match into the blockchain \r\n    /// @param _name descriptive name for the match (e.g. Pac vs. Mayweather 2016)\r\n    /// @param _participants |-delimited string of participants names (e.g. \"Manny Pac|Floyd May\")\r\n    /// @param _participantCount number of participants \r\n    /// @param _date date set for the match \r\n    /// @return the unique id of the newly created match \r\n    function addMatch(string memory _name, string memory _participants, uint8 _participantCount, uint _date) onlyOwner public returns (bytes32) {\r\n\r\n        //hash the crucial info to get a unique id \r\n        bytes32 id = keccak256(abi.encodePacked(_name, _participantCount, _date)); \r\n\r\n        //require that the match be unique (not already added) \r\n        require(!matchExists(id));\r\n        \r\n        //add the match \r\n        uint newIndex = matches.push(Match(id, _name, _participants, _participantCount, _date, MatchOutcome.Pending, -1))-1; \r\n        matchIdToIndex[id] = newIndex+1;\r\n        \r\n        //return the unique id of the new match\r\n        return id;\r\n    }\r\n\r\n    /// @notice sets the outcome of a predefined match, permanently on the blockchain\r\n    /// @param _matchId unique id of the match to modify\r\n    /// @param _outcome outcome of the match \r\n    function declareOutcome(bytes32 _matchId, MatchOutcome _outcome, int8 _winner) onlyOwner external {\r\n\r\n        //require that it exists\r\n        require(matchExists(_matchId)); \r\n\r\n        //get the match \r\n        uint index = _getMatchIndex(_matchId);\r\n        Match storage theMatch = matches[index]; \r\n\r\n        if (_outcome == MatchOutcome.Decided) \r\n            require(_winner >= 0 && theMatch.participantCount > uint8(_winner)); \r\n\r\n        //set the outcome \r\n        theMatch.outcome = _outcome;\r\n        \r\n        //set the winner (if there is one)\r\n        if (_outcome == MatchOutcome.Decided) \r\n            theMatch.winner = _winner;\r\n    }\r\n\r\n    /// @notice gets the unique ids of all pending matches, in reverse chronological order\r\n    /// @return an array of unique match ids\r\n    function getPendingMatches() public view returns (bytes32[] memory) {\r\n        uint count = 0; \r\n\r\n        //get count of pending matches \r\n        for (uint i = 0; i < matches.length; i++) {\r\n            if (matches[i].outcome == MatchOutcome.Pending) \r\n                count++; \r\n        }\r\n\r\n        //collect up all the pending matches\r\n        bytes32[] memory output = new bytes32[](count); \r\n\r\n        if (count > 0) {\r\n            uint index = 0;\r\n            for (uint n = matches.length; n > 0; n--) {\r\n                if (matches[n-1].outcome == MatchOutcome.Pending) \r\n                    output[index++] = matches[n-1].id;\r\n            }\r\n        } \r\n\r\n        return output; \r\n    }\r\n\r\n    /// @notice gets the unique ids of matches, pending and decided, in reverse chronological order\r\n    /// @return an array of unique match ids\r\n    function getAllMatches() public view returns (bytes32[] memory) {\r\n        bytes32[] memory output = new bytes32[](matches.length); \r\n\r\n        //get all ids \r\n        if (matches.length > 0) {\r\n            uint index = 0;\r\n            for (uint n = matches.length; n > 0; n--) {\r\n                output[index++] = matches[n-1].id;\r\n            }\r\n        }\r\n        \r\n        return output; \r\n    }\r\n\r\n    /// @notice gets the specified match \r\n    /// @param _matchId the unique id of the desired match \r\n    /// @return match data of the specified match \r\n    function getMatch(bytes32 _matchId) public view returns (\r\n        bytes32 id,\r\n        string memory name, \r\n        string memory participants,\r\n        uint8 participantCount,\r\n        uint date, \r\n        MatchOutcome outcome, \r\n        int8 winner) {\r\n        \r\n        //get the match \r\n        if (matchExists(_matchId)) {\r\n            Match storage theMatch = matches[_getMatchIndex(_matchId)];\r\n            return (theMatch.id, theMatch.name, theMatch.participants, theMatch.participantCount, theMatch.date, theMatch.outcome, theMatch.winner); \r\n        }\r\n        else {\r\n            return (_matchId, \"\", \"\", 0, 0, MatchOutcome.Pending, -1); \r\n        }\r\n    }\r\n\r\n    /// @notice gets the most recent match or pending match \r\n    /// @param _pending if true, will return only the most recent pending match; otherwise, returns the most recent match either pending or completed\r\n    /// @return match data \r\n    function getMostRecentMatch(bool _pending) public view returns (\r\n        bytes32 id,\r\n        string memory name, \r\n        string memory participants,\r\n        uint8 participantCount,\r\n        uint date, \r\n        MatchOutcome outcome, \r\n        int8 winner) {\r\n\r\n        bytes32 matchId = 0; \r\n        bytes32[] memory ids;\r\n\r\n        if (_pending) {\r\n            ids = getPendingMatches(); \r\n        } else {\r\n            ids = getAllMatches();\r\n        }\r\n        if (ids.length > 0) {\r\n            matchId = ids[0]; \r\n        }\r\n        \r\n        //by default, return a null match\r\n        return getMatch(matchId); \r\n    }\r\n\r\n    /// @notice can be used by a client contract to ensure that they've connected to this contract interface successfully\r\n    /// @return true, unconditionally \r\n    function testConnection() public pure returns (bool) {\r\n        return true; \r\n    }\r\n\r\n    /// @notice gets the address of this contract \r\n    /// @return address \r\n    function getAddress() public view returns (address) {\r\n        return address(this);\r\n    }\r\n\r\n    /// @notice for testing \r\n    function addTestData() external onlyOwner {\r\n        addMatch(\"Pacquiao vs. MayWeather\", \"Pacquiao|Mayweather\", 2, DateLib.DateTime(2018, 8, 13, 0, 0, 0, 0, 0).toUnixTimestamp());\r\n        addMatch(\"Macquiao vs. Payweather\", \"Macquiao|Payweather\", 2, DateLib.DateTime(2018, 8, 15, 0, 0, 0, 0, 0).toUnixTimestamp());\r\n        addMatch(\"Pacweather vs. Macarthur\", \"Pacweather|Macarthur\", 2, DateLib.DateTime(2018, 9, 3, 0, 0, 0, 0, 0).toUnixTimestamp());\r\n        addMatch(\"Macarthur vs. Truman\", \"Macarthur|Truman\", 2, DateLib.DateTime(2018, 9, 3, 0, 0, 0, 0, 0).toUnixTimestamp());\r\n        addMatch(\"Macaque vs. Pregunto\", \"Macaque|Pregunto\", 2, DateLib.DateTime(2018, 9, 21, 0, 0, 0, 0, 0).toUnixTimestamp());\r\n        addMatch(\"Farsworth vs. Wernstrom\", \"Farsworth|Wernstrom\", 2, DateLib.DateTime(2018, 9, 29, 0, 0, 0, 0, 0).toUnixTimestamp());\r\n        addMatch(\"Fortinbras vs. Hamlet\", \"Fortinbras|Hamlet\", 2, DateLib.DateTime(2018, 10, 10, 0, 0, 0, 0, 0).toUnixTimestamp());\r\n        addMatch(\"Foolicle vs. Pretendo\", \"Foolicle|Pretendo\", 2, DateLib.DateTime(2018, 11, 11, 0, 0, 0, 0, 0).toUnixTimestamp());\r\n        addMatch(\"Parthian vs. Scythian\", \"Parthian|Scythian\", 2, DateLib.DateTime(2018, 11, 12, 0, 0, 0, 0, 0).toUnixTimestamp());\r\n    }\r\n}",
  "sourcePath": "C:/Users/user/Desktop/geth/CVOchain/CVOChainPoA/New folder/Bet_on_boxing__smartcontract_edited/bettingv3/oracle/contracts/BoxingOracle.sol",
  "compiler": {
    "name": "solc",
    "version": "0.5.16+commit.9c3226ce.Emscripten.clang"
  },
  "schemaVersion": "3.3.3",
  "updatedAt": "2021-01-04T16:12:33.654Z",
  "networkType": "ethereum",
  "devdoc": {
    "author": "John R. Kosinski",
    "methods": {
      "addMatch(string,string,uint8,uint256)": {
        "params": {
          "_date": "date set for the match ",
          "_name": "descriptive name for the match (e.g. Pac vs. Mayweather 2016)",
          "_participantCount": "number of participants ",
          "_participants": "|-delimited string of participants names (e.g. \"Manny Pac|Floyd May\")"
        },
        "return": "the unique id of the newly created match "
      },
      "declareOutcome(bytes32,uint8,int8)": {
        "params": {
          "_matchId": "unique id of the match to modify",
          "_outcome": "outcome of the match "
        }
      },
      "getAddress()": {
        "return": "address "
      },
      "getAllMatches()": {
        "return": "an array of unique match ids"
      },
      "getMatch(bytes32)": {
        "params": {
          "_matchId": "the unique id of the desired match "
        },
        "return": "match data of the specified match "
      },
      "getMostRecentMatch(bool)": {
        "params": {
          "_pending": "if true, will return only the most recent pending match; otherwise, returns the most recent match either pending or completed"
        },
        "return": "match data "
      },
      "getPendingMatches()": {
        "return": "an array of unique match ids"
      },
      "matchExists(bytes32)": {
        "params": {
          "_matchId": "the match id to test"
        },
        "return": "true if match exists and id is valid"
      },
      "testConnection()": {
        "return": "true, unconditionally "
      },
      "transferOwnership(address)": {
        "details": "Allows the current owner to transfer control of the contract to a newOwner.",
        "params": {
          "newOwner": "The address to transfer ownership to."
        }
      }
    },
    "title": "BoxingOracle"
  },
  "userdoc": {
    "methods": {
      "addMatch(string,string,uint8,uint256)": {
        "notice": "puts a new pending match into the blockchain "
      },
      "addTestData()": {
        "notice": "for testing "
      },
      "declareOutcome(bytes32,uint8,int8)": {
        "notice": "sets the outcome of a predefined match, permanently on the blockchain"
      },
      "getAddress()": {
        "notice": "gets the address of this contract "
      },
      "getAllMatches()": {
        "notice": "gets the unique ids of matches, pending and decided, in reverse chronological order"
      },
      "getMatch(bytes32)": {
        "notice": "gets the specified match "
      },
      "getMostRecentMatch(bool)": {
        "notice": "gets the most recent match or pending match "
      },
      "getPendingMatches()": {
        "notice": "gets the unique ids of all pending matches, in reverse chronological order"
      },
      "matchExists(bytes32)": {
        "notice": "determines whether a match exists with the given id "
      },
      "testConnection()": {
        "notice": "can be used by a client contract to ensure that they've connected to this contract interface successfully"
      }
    },
    "notice": "Collects and provides information on boxing matches and their outcomes "
  }
}