{
  "contractName": "BoxingBets",
  "abi": [
    {
      "constant": true,
      "inputs": [],
      "name": "getBettableMatches",
      "outputs": [
        {
          "internalType": "bytes32[]",
          "name": "",
          "type": "bytes32[]"
        }
      ],
      "payable": false,
      "stateMutability": "view",
      "type": "function"
    },
    {
      "constant": true,
      "inputs": [
        {
          "internalType": "bytes32",
          "name": "_matchId",
          "type": "bytes32"
        }
      ],
      "name": "getMatch",
      "outputs": [
        {
          "internalType": "bytes32",
          "name": "id",
          "type": "bytes32"
        },
        {
          "internalType": "string",
          "name": "name",
          "type": "string"
        },
        {
          "internalType": "string",
          "name": "participants",
          "type": "string"
        },
        {
          "internalType": "uint8",
          "name": "participantCount",
          "type": "uint8"
        },
        {
          "internalType": "uint256",
          "name": "date",
          "type": "uint256"
        },
        {
          "internalType": "enum OracleInterface.MatchOutcome",
          "name": "outcome",
          "type": "uint8"
        },
        {
          "internalType": "int8",
          "name": "winner",
          "type": "int8"
        }
      ],
      "payable": false,
      "stateMutability": "view",
      "type": "function"
    },
    {
      "constant": true,
      "inputs": [],
      "name": "getMostRecentMatch",
      "outputs": [
        {
          "internalType": "bytes32",
          "name": "id",
          "type": "bytes32"
        },
        {
          "internalType": "string",
          "name": "name",
          "type": "string"
        },
        {
          "internalType": "string",
          "name": "participants",
          "type": "string"
        },
        {
          "internalType": "uint256",
          "name": "participantCount",
          "type": "uint256"
        },
        {
          "internalType": "uint256",
          "name": "date",
          "type": "uint256"
        },
        {
          "internalType": "enum OracleInterface.MatchOutcome",
          "name": "outcome",
          "type": "uint8"
        },
        {
          "internalType": "int8",
          "name": "winner",
          "type": "int8"
        }
      ],
      "payable": false,
      "stateMutability": "view",
      "type": "function"
    },
    {
      "constant": false,
      "inputs": [
        {
          "internalType": "bytes32",
          "name": "_matchId",
          "type": "bytes32"
        },
        {
          "internalType": "uint8",
          "name": "_chosenWinner",
          "type": "uint8"
        }
      ],
      "name": "placeBet",
      "outputs": [],
      "payable": true,
      "stateMutability": "payable",
      "type": "function"
    },
    {
      "constant": true,
      "inputs": [
        {
          "internalType": "uint256",
          "name": "a",
          "type": "uint256"
        },
        {
          "internalType": "uint256",
          "name": "b",
          "type": "uint256"
        }
      ],
      "name": "test",
      "outputs": [
        {
          "internalType": "uint256",
          "name": "",
          "type": "uint256"
        }
      ],
      "payable": false,
      "stateMutability": "pure",
      "type": "function"
    }
  ],
  "bytecode": "0x608060405260405161001090610088565b604051809103906000f08015801561002c573d6000803e3d6000fd5b50600260006101000a81548173ffffffffffffffffffffffffffffffffffffffff021916908373ffffffffffffffffffffffffffffffffffffffff16021790555064e8d4a5100060035534801561008257600080fd5b50610095565b6109a180610f2883390190565b610e84806100a46000396000f3fe60806040526004361061004a5760003560e01c80630e52bb491461004f5780633397741b1461008a578063ced1b708146100f6578063eb8ac92114610229578063fcc6077d14610282575b600080fd5b6100886004803603604081101561006557600080fd5b8101908080359060200190929190803560ff1690602001909291905050506103df565b005b34801561009657600080fd5b5061009f6107c4565b6040518080602001828103825283818151815260200191508051906020019060200280838360005b838110156100e25780820151818401526020810190506100c7565b505050509050019250505060405180910390f35b34801561010257600080fd5b5061010b610908565b60405180888152602001806020018060200187815260200186815260200185600381111561013557fe5b60ff1681526020018460000b60000b8152602001838103835289818151815260200191508051906020019080838360005b83811015610181578082015181840152602081019050610166565b50505050905090810190601f1680156101ae5780820380516001836020036101000a031916815260200191505b50838103825288818151815260200191508051906020019080838360005b838110156101e75780820151818401526020810190506101cc565b50505050905090810190601f1680156102145780820380516001836020036101000a031916815260200191505b50995050505050505050505060405180910390f35b34801561023557600080fd5b5061026c6004803603604081101561024c57600080fd5b810190808035906020019092919080359060200190929190505050610b8d565b6040518082815260200191505060405180910390f35b34801561028e57600080fd5b506102bb600480360360208110156102a557600080fd5b8101908080359060200190929190505050610b9a565b6040518088815260200180602001806020018760ff1660ff1681526020018681526020018560038111156102eb57fe5b60ff1681526020018460000b60000b8152602001838103835289818151815260200191508051906020019080838360005b8381101561033757808201518184015260208101905061031c565b50505050905090810190601f1680156103645780820380516001836020036101000a031916815260200191505b50838103825288818151815260200191508051906020019080838360005b8381101561039d578082015181840152602081019050610382565b50505050905090810190601f1680156103ca5780820380516001836020036101000a031916815260200191505b50995050505050505050505060405180910390f35b60035434101561043a576040517f08c379a0000000000000000000000000000000000000000000000000000000008152600401808060200182810382526021815260200180610e2f6021913960400191505060405180910390fd5b600260009054906101000a900473ffffffffffffffffffffffffffffffffffffffff1673ffffffffffffffffffffffffffffffffffffffff1663a9345240836040518263ffffffff1660e01b81526004018082815260200191505060206040518083038186803b1580156104ad57600080fd5b505afa1580156104c1573d6000803e3d6000fd5b505050506040513d60208110156104d757600080fd5b810190808051906020019092919050505061055a576040517f08c379a00000000000000000000000000000000000000000000000000000000081526004018080602001828103825260198152602001807f537065636966696564206d61746368206e6f7420666f756e640000000000000081525060200191505060405180910390fd5b610565338383610e16565b6105d7576040517f08c379a00000000000000000000000000000000000000000000000000000000081526004018080602001828103825260108152602001807f426574206973206e6f742076616c69640000000000000000000000000000000081525060200191505060405180910390fd5b6105e082610e23565b610652576040517f08c379a000000000000000000000000000000000000000000000000000000000815260040180806020018281038252601a8152602001807f4d61746368206e6f74206f70656e20666f722062657474696e6700000000000081525060200191505060405180910390fd5b600060016000848152602001908152602001600020905060018160405180608001604052803373ffffffffffffffffffffffffffffffffffffffff1681526020018681526020013481526020018560ff168152509080600181540180825580915050906001820390600052602060002090600402016000909192909190915060008201518160000160006101000a81548173ffffffffffffffffffffffffffffffffffffffff021916908373ffffffffffffffffffffffffffffffffffffffff160217905550602082015181600101556040820151816002015560608201518160030160006101000a81548160ff021916908360ff1602179055505050505060008060003373ffffffffffffffffffffffffffffffffffffffff1673ffffffffffffffffffffffffffffffffffffffff16815260200190815260200160002090508084908060018154018082558091505090600182039060005260206000200160009091929091909150555050505050565b6060600260009054906101000a900473ffffffffffffffffffffffffffffffffffffffff1673ffffffffffffffffffffffffffffffffffffffff16635f29d4b16040518163ffffffff1660e01b815260040160006040518083038186803b15801561082e57600080fd5b505afa158015610842573d6000803e3d6000fd5b505050506040513d6000823e3d601f19601f82011682018060405250602081101561086c57600080fd5b810190808051604051939291908464010000000082111561088c57600080fd5b838201915060208201858111156108a257600080fd5b82518660208202830111640100000000821117156108bf57600080fd5b8083526020830192505050908051906020019060200280838360005b838110156108f65780820151818401526020810190506108db565b50505050905001604052505050905090565b6000606080600080600080600260009054906101000a900473ffffffffffffffffffffffffffffffffffffffff1673ffffffffffffffffffffffffffffffffffffffff1663bb2b0f5860016040518263ffffffff1660e01b8152600401808215151515815260200191505060006040518083038186803b15801561098b57600080fd5b505afa15801561099f573d6000803e3d6000fd5b505050506040513d6000823e3d601f19601f8201168201806040525060e08110156109c957600080fd5b8101908080519060200190929190805160405193929190846401000000008211156109f357600080fd5b83820191506020820185811115610a0957600080fd5b8251866001820283011164010000000082111715610a2657600080fd5b8083526020830192505050908051906020019080838360005b83811015610a5a578082015181840152602081019050610a3f565b50505050905090810190601f168015610a875780820380516001836020036101000a031916815260200191505b5060405260200180516040519392919084640100000000821115610aaa57600080fd5b83820191506020820185811115610ac057600080fd5b8251866001820283011164010000000082111715610add57600080fd5b8083526020830192505050908051906020019080838360005b83811015610b11578082015181840152602081019050610af6565b50505050905090810190601f168015610b3e5780820380516001836020036101000a031916815260200191505b50604052602001805190602001909291908051906020019092919080519060200190929190805190602001909291905050508360ff169350965096509650965096509650965090919293949596565b6000818301905092915050565b6000606080600080600080600260009054906101000a900473ffffffffffffffffffffffffffffffffffffffff1673ffffffffffffffffffffffffffffffffffffffff1663fcc6077d896040518263ffffffff1660e01b81526004018082815260200191505060006040518083038186803b158015610c1857600080fd5b505afa158015610c2c573d6000803e3d6000fd5b505050506040513d6000823e3d601f19601f8201168201806040525060e0811015610c5657600080fd5b810190808051906020019092919080516040519392919084640100000000821115610c8057600080fd5b83820191506020820185811115610c9657600080fd5b8251866001820283011164010000000082111715610cb357600080fd5b8083526020830192505050908051906020019080838360005b83811015610ce7578082015181840152602081019050610ccc565b50505050905090810190601f168015610d145780820380516001836020036101000a031916815260200191505b5060405260200180516040519392919084640100000000821115610d3757600080fd5b83820191506020820185811115610d4d57600080fd5b8251866001820283011164010000000082111715610d6a57600080fd5b8083526020830192505050908051906020019080838360005b83811015610d9e578082015181840152602081019050610d83565b50505050905090810190601f168015610dcb5780820380516001836020036101000a031916815260200191505b50604052602001805190602001909291908051906020019092919080519060200190929190805190602001909291905050509650965096509650965096509650919395979092949650565b6000600190509392505050565b60006001905091905056fe42657420616d6f756e74206d757374206265203e3d206d696e696d756d20626574a265627a7a723158201c31818926dfbc4173c67a00e9aa40fa63d5654676cde686cdac3af76f385cee64736f6c63430005100032608060405234801561001057600080fd5b50610981806100206000396000f3fe608060405234801561001057600080fd5b50600436106100575760003560e01c80635f29d4b11461005c578063a9345240146100bb578063bb2b0f5814610101578063c17c5a4514610253578063fcc6077d146102b2575b600080fd5b610064610402565b6040518080602001828103825283818151815260200191508051906020019060200280838360005b838110156100a757808201518184015260208101905061008c565b505050509050019250505060405180910390f35b6100e7600480360360208110156100d157600080fd5b8101908080359060200190929190505050610578565b604051808215151515815260200191505060405180910390f35b61012f6004803603602081101561011757600080fd5b810190808035151590602001909291905050506105b4565b6040518088815260200180602001806020018760ff1660ff16815260200186815260200185600381111561015f57fe5b60ff1681526020018460000b60000b8152602001838103835289818151815260200191508051906020019080838360005b838110156101ab578082015181840152602081019050610190565b50505050905090810190601f1680156101d85780820380516001836020036101000a031916815260200191505b50838103825288818151815260200191508051906020019080838360005b838110156102115780820151818401526020810190506101f6565b50505050905090810190601f16801561023e5780820380516001836020036101000a031916815260200191505b50995050505050505050505060405180910390f35b61025b61062f565b6040518080602001828103825283818151815260200191508051906020019060200280838360005b8381101561029e578082015181840152602081019050610283565b505050509050019250505060405180910390f35b6102de600480360360208110156102c857600080fd5b81019080803590602001909291905050506106e7565b6040518088815260200180602001806020018760ff1660ff16815260200186815260200185600381111561030e57fe5b60ff1681526020018460000b60000b8152602001838103835289818151815260200191508051906020019080838360005b8381101561035a57808201518184015260208101905061033f565b50505050905090810190601f1680156103875780820380516001836020036101000a031916815260200191505b50838103825288818151815260200191508051906020019080838360005b838110156103c05780820151818401526020810190506103a5565b50505050905090810190601f1680156103ed5780820380516001836020036101000a031916815260200191505b50995050505050505050505060405180910390f35b6060600080905060008090505b60018054905081101561047c576000600381111561042957fe5b6001828154811061043657fe5b906000526020600020906006020160050160009054906101000a900460ff16600381111561046057fe5b141561046f5781806001019250505b808060010191505061040f565b506060816040519080825280602002602001820160405280156104ae5781602001602082028038833980820191505090505b5090506000821115610570576000809050600060018054905090505b600081111561056d57600060038111156104e057fe5b6001808303815481106104ef57fe5b906000526020600020906006020160050160009054906101000a900460ff16600381111561051957fe5b141561055f5760018082038154811061052e57fe5b90600052602060002090600602016000015483838060010194508151811061055257fe5b6020026020010181815250505b8080600190039150506104ca565b50505b809250505090565b600080600180549050141561059057600090506105af565b6000806000848152602001908152602001600020549050600081119150505b919050565b600060608060008060008060008060001b9050606089156105de576105d7610402565b90506105e9565b6105e661062f565b90505b60008151111561060b578060008151811061060057fe5b602002602001015191505b610614826106e7565b98509850985098509850985098505050919395979092949650565b6060806001805490506040519080825280602002602001820160405280156106665781602001602082028038833980820191505090505b509050600060018054905011156106e0576000809050600060018054905090505b60008111156106dd5760018082038154811061069f57fe5b9060005260206000209060060201600001548383806001019450815181106106c357fe5b602002602001018181525050808060019003915050610687565b50505b8091505090565b60006060806000806000806106fb88610578565b156108bb576000600161070d8a61092d565b8154811061071757fe5b90600052602060002090600602019050806000015481600101826002018360030160009054906101000a900460ff1684600401548560050160009054906101000a900460ff168660050160019054906101000a900460000b858054600181600116156101000203166002900480601f0160208091040260200160405190810160405280929190818152602001828054600181600116156101000203166002900480156108045780601f106107d957610100808354040283529160200191610804565b820191906000526020600020905b8154815290600101906020018083116107e757829003601f168201915b50505050509550848054600181600116156101000203166002900480601f0160208091040260200160405190810160405280929190818152602001828054600181600116156101000203166002900480156108a05780601f10610875576101008083540402835291602001916108a0565b820191906000526020600020905b81548152906001019060200180831161088357829003601f168201915b50505050509450975097509750975097509750975050610922565b8760008060007fffffffffffffffffffffffffffffffffffffffffffffffffffffffffffffffff6040518060200160405280600081525093929190604051806020016040528060008152509392919083935082925080905096509650965096509650965096505b919395979092949650565b600060016000808481526020019081526020016000205403905091905056fea265627a7a72315820ba61c01bd391e806a47755ee96497794c11f7578ca674b2a76bd3934e58d441264736f6c63430005100032",
  "source": "pragma solidity ^0.5.16;\r\n\r\nimport \"./OracleInterface.sol\";\r\n\r\n\r\n/// @title BoxingBets\r\n/// @author John R. Kosinski\r\n/// @notice Takes bets and handles payouts for boxing matches \r\ncontract BoxingBets {\r\n    \r\n    //mappings \r\n    mapping(address => bytes32[]) private userToBets;\r\n    mapping(bytes32 => Bet[]) private matchToBets;\r\n\r\n    //boxing results oracle \r\n    OracleInterface internal boxingOracle = new OracleInterface(); \r\n\r\n    //constants\r\n    uint internal minimumBet = 1000000000000;\r\n\r\n    struct Bet {\r\n        address user;\r\n        bytes32 matchId;\r\n        uint amount; \r\n        uint8 chosenWinner; \r\n    }\r\n\r\n    enum BettableOutcome {\r\n        Fighter1,\r\n        Fighter2\r\n    }\r\n\r\n    /// @notice determines whether or not the user has already bet on the given match\r\n    /// @param _user address of a user\r\n    /// @param _matchId id of a match \r\n    /// @param _chosenWinner the index of the participant to bet on (to win)\r\n    /// @return true if the given user has already placed a bet on the given match \r\n    function _betIsValid(address _user, bytes32 _matchId, uint8 _chosenWinner) private view returns (bool) {\r\n\r\n        return true;\r\n    }\r\n\r\n    /// @notice determines whether or not bets may still be accepted for the given match\r\n    /// @param _matchId id of a match \r\n    /// @return true if the match is bettable \r\n    function _matchOpenForBetting(bytes32 _matchId) private view returns (bool) {\r\n        \r\n        return true;\r\n    }\r\n\r\n \r\n    /// @notice gets a list ids of all currently bettable matches\r\n    /// @return array of match ids \r\n    function getBettableMatches() public view returns (bytes32[] memory) {\r\n        return boxingOracle.getPendingMatches(); \r\n    }\r\n\r\n    /// @notice returns the full data of the specified match \r\n    /// @param _matchId the id of the desired match\r\n    /// @return match data \r\n    function getMatch(bytes32 _matchId) public view returns (\r\n        bytes32 id,\r\n        string memory name, \r\n        string memory participants,\r\n        uint8 participantCount,\r\n        uint date, \r\n        OracleInterface.MatchOutcome outcome, \r\n        int8 winner) { \r\n\r\n        return boxingOracle.getMatch(_matchId); \r\n    }\r\n\r\n    /// @notice returns the full data of the most recent bettable match \r\n    /// @return match data \r\n    function getMostRecentMatch() public view returns (\r\n        bytes32 id,\r\n        string memory name, \r\n        string memory participants,\r\n        uint participantCount, \r\n        uint date, \r\n        OracleInterface.MatchOutcome outcome, \r\n        int8 winner) { \r\n\r\n        return boxingOracle.getMostRecentMatch(true); \r\n    }\r\n\r\n    /// @notice places a non-rescindable bet on the given match \r\n    /// @param _matchId the id of the match on which to bet \r\n    /// @param _chosenWinner the index of the participant chosen as winner\r\n    function placeBet(bytes32 _matchId, uint8 _chosenWinner) public payable {\r\n\r\n        //bet must be above a certain minimum \r\n        require(msg.value >= minimumBet, \"Bet amount must be >= minimum bet\");\r\n\r\n        //make sure that match exists \r\n        require(boxingOracle.matchExists(_matchId), \"Specified match not found\"); \r\n\r\n        //require that chosen winner falls within the defined number of participants for match\r\n        require(_betIsValid(msg.sender, _matchId, _chosenWinner), \"Bet is not valid\");\r\n\r\n        //match must still be open for betting\r\n        require(_matchOpenForBetting(_matchId), \"Match not open for betting\"); \r\n\r\n        //transfer the money into the account \r\n        //address(this).transfer(msg.value);\r\n\r\n        //add the new bet \r\n        Bet[] storage bets = matchToBets[_matchId]; \r\n        bets.push(Bet(msg.sender, _matchId, msg.value, _chosenWinner))-1; \r\n\r\n        //add the mapping\r\n        bytes32[] storage userBets = userToBets[msg.sender]; \r\n        userBets.push(_matchId); \r\n    }\r\n\r\n    /// @notice for testing only; adds two numbers and returns result \r\n    /// @return uint sum of two uints  \r\n    function test(uint a, uint b) public pure returns (uint) {\r\n        return (a + b); \r\n    }\r\n}",
  "sourcePath": "C:/Users/user/Desktop/geth/CVOchain/CVOChainPoA/New folder/Bet_on_boxing__smartcontract_edited/bettingv3/client/contracts/BoxingBets.sol",
  "compiler": {
    "name": "solc",
    "version": "0.5.16+commit.9c3226ce.Emscripten.clang"
  },
  "schemaVersion": "3.3.3",
  "updatedAt": "2021-01-04T15:27:06.202Z",
  "networkType": "ethereum",
  "devdoc": {
    "author": "John R. Kosinski",
    "methods": {
      "getBettableMatches()": {
        "return": "array of match ids "
      },
      "getMatch(bytes32)": {
        "params": {
          "_matchId": "the id of the desired match"
        },
        "return": "match data "
      },
      "getMostRecentMatch()": {
        "return": "match data "
      },
      "placeBet(bytes32,uint8)": {
        "params": {
          "_chosenWinner": "the index of the participant chosen as winner",
          "_matchId": "the id of the match on which to bet "
        }
      },
      "test(uint256,uint256)": {
        "return": "uint sum of two uints  "
      }
    },
    "title": "BoxingBets"
  },
  "userdoc": {
    "methods": {
      "getBettableMatches()": {
        "notice": "gets a list ids of all currently bettable matches"
      },
      "getMatch(bytes32)": {
        "notice": "returns the full data of the specified match "
      },
      "getMostRecentMatch()": {
        "notice": "returns the full data of the most recent bettable match "
      },
      "placeBet(bytes32,uint8)": {
        "notice": "places a non-rescindable bet on the given match "
      },
      "test(uint256,uint256)": {
        "notice": "for testing only; adds two numbers and returns result "
      }
    },
    "notice": "Takes bets and handles payouts for boxing matches "
  }
}