{
  "contractName": "OracleInterface",
  "abi": [
    {
      "constant": true,
      "inputs": [],
      "name": "getPendingMatches",
      "outputs": [
        {
          "internalType": "bytes32[]",
          "name": "",
          "type": "bytes32[]"
        }
      ],
      "payable": false,
      "stateMutability": "view",
      "type": "function"
    },
    {
      "constant": true,
      "inputs": [],
      "name": "getAllMatches",
      "outputs": [
        {
          "internalType": "bytes32[]",
          "name": "",
          "type": "bytes32[]"
        }
      ],
      "payable": false,
      "stateMutability": "view",
      "type": "function"
    },
    {
      "constant": true,
      "inputs": [
        {
          "internalType": "bytes32",
          "name": "_matchId",
          "type": "bytes32"
        }
      ],
      "name": "matchExists",
      "outputs": [
        {
          "internalType": "bool",
          "name": "",
          "type": "bool"
        }
      ],
      "payable": false,
      "stateMutability": "view",
      "type": "function"
    },
    {
      "constant": true,
      "inputs": [
        {
          "internalType": "bytes32",
          "name": "_matchId",
          "type": "bytes32"
        }
      ],
      "name": "getMatch",
      "outputs": [
        {
          "internalType": "bytes32",
          "name": "id",
          "type": "bytes32"
        },
        {
          "internalType": "string",
          "name": "name",
          "type": "string"
        },
        {
          "internalType": "string",
          "name": "participants",
          "type": "string"
        },
        {
          "internalType": "uint8",
          "name": "participantCount",
          "type": "uint8"
        },
        {
          "internalType": "uint256",
          "name": "date",
          "type": "uint256"
        },
        {
          "internalType": "enum OracleInterface.MatchOutcome",
          "name": "outcome",
          "type": "uint8"
        },
        {
          "internalType": "int8",
          "name": "winner",
          "type": "int8"
        }
      ],
      "payable": false,
      "stateMutability": "view",
      "type": "function"
    },
    {
      "constant": true,
      "inputs": [
        {
          "internalType": "bool",
          "name": "_pending",
          "type": "bool"
        }
      ],
      "name": "getMostRecentMatch",
      "outputs": [
        {
          "internalType": "bytes32",
          "name": "id",
          "type": "bytes32"
        },
        {
          "internalType": "string",
          "name": "name",
          "type": "string"
        },
        {
          "internalType": "string",
          "name": "participants",
          "type": "string"
        },
        {
          "internalType": "uint8",
          "name": "participantCount",
          "type": "uint8"
        },
        {
          "internalType": "uint256",
          "name": "date",
          "type": "uint256"
        },
        {
          "internalType": "enum OracleInterface.MatchOutcome",
          "name": "outcome",
          "type": "uint8"
        },
        {
          "internalType": "int8",
          "name": "winner",
          "type": "int8"
        }
      ],
      "payable": false,
      "stateMutability": "view",
      "type": "function"
    }
  ],
  "bytecode": "0x608060405234801561001057600080fd5b50610981806100206000396000f3fe608060405234801561001057600080fd5b50600436106100575760003560e01c80635f29d4b11461005c578063a9345240146100bb578063bb2b0f5814610101578063c17c5a4514610253578063fcc6077d146102b2575b600080fd5b610064610402565b6040518080602001828103825283818151815260200191508051906020019060200280838360005b838110156100a757808201518184015260208101905061008c565b505050509050019250505060405180910390f35b6100e7600480360360208110156100d157600080fd5b8101908080359060200190929190505050610578565b604051808215151515815260200191505060405180910390f35b61012f6004803603602081101561011757600080fd5b810190808035151590602001909291905050506105b4565b6040518088815260200180602001806020018760ff1660ff16815260200186815260200185600381111561015f57fe5b60ff1681526020018460000b60000b8152602001838103835289818151815260200191508051906020019080838360005b838110156101ab578082015181840152602081019050610190565b50505050905090810190601f1680156101d85780820380516001836020036101000a031916815260200191505b50838103825288818151815260200191508051906020019080838360005b838110156102115780820151818401526020810190506101f6565b50505050905090810190601f16801561023e5780820380516001836020036101000a031916815260200191505b50995050505050505050505060405180910390f35b61025b61062f565b6040518080602001828103825283818151815260200191508051906020019060200280838360005b8381101561029e578082015181840152602081019050610283565b505050509050019250505060405180910390f35b6102de600480360360208110156102c857600080fd5b81019080803590602001909291905050506106e7565b6040518088815260200180602001806020018760ff1660ff16815260200186815260200185600381111561030e57fe5b60ff1681526020018460000b60000b8152602001838103835289818151815260200191508051906020019080838360005b8381101561035a57808201518184015260208101905061033f565b50505050905090810190601f1680156103875780820380516001836020036101000a031916815260200191505b50838103825288818151815260200191508051906020019080838360005b838110156103c05780820151818401526020810190506103a5565b50505050905090810190601f1680156103ed5780820380516001836020036101000a031916815260200191505b50995050505050505050505060405180910390f35b6060600080905060008090505b60018054905081101561047c576000600381111561042957fe5b6001828154811061043657fe5b906000526020600020906006020160050160009054906101000a900460ff16600381111561046057fe5b141561046f5781806001019250505b808060010191505061040f565b506060816040519080825280602002602001820160405280156104ae5781602001602082028038833980820191505090505b5090506000821115610570576000809050600060018054905090505b600081111561056d57600060038111156104e057fe5b6001808303815481106104ef57fe5b906000526020600020906006020160050160009054906101000a900460ff16600381111561051957fe5b141561055f5760018082038154811061052e57fe5b90600052602060002090600602016000015483838060010194508151811061055257fe5b6020026020010181815250505b8080600190039150506104ca565b50505b809250505090565b600080600180549050141561059057600090506105af565b6000806000848152602001908152602001600020549050600081119150505b919050565b600060608060008060008060008060001b9050606089156105de576105d7610402565b90506105e9565b6105e661062f565b90505b60008151111561060b578060008151811061060057fe5b602002602001015191505b610614826106e7565b98509850985098509850985098505050919395979092949650565b6060806001805490506040519080825280602002602001820160405280156106665781602001602082028038833980820191505090505b509050600060018054905011156106e0576000809050600060018054905090505b60008111156106dd5760018082038154811061069f57fe5b9060005260206000209060060201600001548383806001019450815181106106c357fe5b602002602001018181525050808060019003915050610687565b50505b8091505090565b60006060806000806000806106fb88610578565b156108bb576000600161070d8a61092d565b8154811061071757fe5b90600052602060002090600602019050806000015481600101826002018360030160009054906101000a900460ff1684600401548560050160009054906101000a900460ff168660050160019054906101000a900460000b858054600181600116156101000203166002900480601f0160208091040260200160405190810160405280929190818152602001828054600181600116156101000203166002900480156108045780601f106107d957610100808354040283529160200191610804565b820191906000526020600020905b8154815290600101906020018083116107e757829003601f168201915b50505050509550848054600181600116156101000203166002900480601f0160208091040260200160405190810160405280929190818152602001828054600181600116156101000203166002900480156108a05780601f10610875576101008083540402835291602001916108a0565b820191906000526020600020905b81548152906001019060200180831161088357829003601f168201915b50505050509450975097509750975097509750975050610922565b8760008060007fffffffffffffffffffffffffffffffffffffffffffffffffffffffffffffffff6040518060200160405280600081525093929190604051806020016040528060008152509392919083935082925080905096509650965096509650965096505b919395979092949650565b600060016000808481526020019081526020016000205403905091905056fea265627a7a72315820ba61c01bd391e806a47755ee96497794c11f7578ca674b2a76bd3934e58d441264736f6c63430005100032",
  "source": "pragma solidity ^0.5.16;\r\n\r\ncontract OracleInterface {\r\n    mapping(bytes32 => uint) matchIdToIndex; \r\n    Match[] matches; \r\n\r\n    //defines a match along with its outcome\r\n    struct Match {\r\n        bytes32 id;\r\n        string name;\r\n        string participants;\r\n        uint8 participantCount;\r\n        uint date; \r\n        MatchOutcome outcome;\r\n        int8 winner;\r\n    }\r\n\r\n    enum MatchOutcome {\r\n        Pending,    //match has not been fought to decision\r\n        Underway,   //match has started & is underway\r\n        Draw,       //anything other than a clear winner (e.g. cancelled)\r\n        Decided     //index of participant who is the winner \r\n    }\r\n\r\n    /// @notice returns the array index of the match with the given id \r\n    /// @dev if the match id is invalid, then the return value will be incorrect and may cause error; you must call matchExists(_matchId) first!\r\n    /// @param _matchId the match id to get\r\n    /// @return an array index \r\n    function _getMatchIndex(bytes32 _matchId) private view returns (uint) {\r\n        return matchIdToIndex[_matchId]-1; \r\n    }\r\n\r\n\r\n    /// @notice gets the unique ids of all pending matches, in reverse chronological order\r\n    /// @return an array of unique match ids\r\n    function getPendingMatches() public view returns (bytes32[] memory) {\r\n        uint count = 0; \r\n\r\n        //get count of pending matches \r\n        for (uint i = 0; i < matches.length; i++) {\r\n            if (matches[i].outcome == MatchOutcome.Pending) \r\n                count++; \r\n        }\r\n\r\n        //collect up all the pending matches\r\n        bytes32[] memory output = new bytes32[](count); \r\n\r\n        if (count > 0) {\r\n            uint index = 0;\r\n            for (uint n = matches.length; n > 0; n--) {\r\n                if (matches[n-1].outcome == MatchOutcome.Pending) \r\n                    output[index++] = matches[n-1].id;\r\n            }\r\n        } \r\n\r\n        return output; \r\n    }\r\n\r\n    /// @notice gets the unique ids of matches, pending and decided, in reverse chronological order\r\n    /// @return an array of unique match ids\r\n    function getAllMatches() public view returns (bytes32[] memory) {\r\n        bytes32[] memory output = new bytes32[](matches.length); \r\n\r\n        //get all ids \r\n        if (matches.length > 0) {\r\n            uint index = 0;\r\n            for (uint n = matches.length; n > 0; n--) {\r\n                output[index++] = matches[n-1].id;\r\n            }\r\n        }\r\n        \r\n        return output; \r\n    }\r\n\r\n    /// @notice determines whether a match exists with the given id \r\n    /// @param _matchId the match id to test\r\n    /// @return true if match exists and id is valid\r\n    function matchExists(bytes32 _matchId) public view returns (bool) {\r\n        if (matches.length == 0)\r\n            return false;\r\n        uint index = matchIdToIndex[_matchId]; \r\n        return (index > 0); \r\n    }\r\n\r\n    /// @notice gets the specified match \r\n    /// @param _matchId the unique id of the desired match \r\n    /// @return match data of the specified match \r\n    function getMatch(bytes32 _matchId) public view returns (\r\n        bytes32 id,\r\n        string memory name, \r\n        string memory participants,\r\n        uint8 participantCount,\r\n        uint date, \r\n        MatchOutcome outcome, \r\n        int8 winner) {\r\n        \r\n        //get the match \r\n        if (matchExists(_matchId)) {\r\n            Match storage theMatch = matches[_getMatchIndex(_matchId)];\r\n            return (theMatch.id, theMatch.name, theMatch.participants, theMatch.participantCount, theMatch.date, theMatch.outcome, theMatch.winner); \r\n        }\r\n        else {\r\n            return (_matchId, \"\", \"\", 0, 0, MatchOutcome.Pending, -1); \r\n        }\r\n    }\r\n\r\n    /// @notice gets the most recent match or pending match \r\n    /// @param _pending if true, will return only the most recent pending match; otherwise, returns the most recent match either pending or completed\r\n    /// @return match data \r\n    function getMostRecentMatch(bool _pending) public view returns (\r\n        bytes32 id,\r\n        string memory name, \r\n        string memory participants,\r\n        uint8 participantCount,\r\n        uint date, \r\n        MatchOutcome outcome, \r\n        int8 winner) {\r\n\r\n        bytes32 matchId = 0; \r\n        bytes32[] memory ids;\r\n\r\n        if (_pending) {\r\n            ids = getPendingMatches(); \r\n        } else {\r\n            ids = getAllMatches();\r\n        }\r\n        if (ids.length > 0) {\r\n            matchId = ids[0]; \r\n        }\r\n        \r\n        //by default, return a null match\r\n        return getMatch(matchId); \r\n    }\r\n}",
  "sourcePath": "C:\\Users\\user\\Desktop\\geth\\CVOchain\\CVOChainPoA\\New folder\\Bet_on_boxing__smartcontract_edited\\bettingv3\\client\\contracts\\OracleInterface.sol",
  "compiler": {
    "name": "solc",
    "version": "0.5.16+commit.9c3226ce.Emscripten.clang"
  },
  "schemaVersion": "3.3.3",
  "updatedAt": "2021-01-04T15:27:00.501Z",
  "devdoc": {
    "methods": {
      "getAllMatches()": {
        "return": "an array of unique match ids"
      },
      "getMatch(bytes32)": {
        "params": {
          "_matchId": "the unique id of the desired match "
        },
        "return": "match data of the specified match "
      },
      "getMostRecentMatch(bool)": {
        "params": {
          "_pending": "if true, will return only the most recent pending match; otherwise, returns the most recent match either pending or completed"
        },
        "return": "match data "
      },
      "getPendingMatches()": {
        "return": "an array of unique match ids"
      },
      "matchExists(bytes32)": {
        "params": {
          "_matchId": "the match id to test"
        },
        "return": "true if match exists and id is valid"
      }
    }
  },
  "userdoc": {
    "methods": {
      "getAllMatches()": {
        "notice": "gets the unique ids of matches, pending and decided, in reverse chronological order"
      },
      "getMatch(bytes32)": {
        "notice": "gets the specified match "
      },
      "getMostRecentMatch(bool)": {
        "notice": "gets the most recent match or pending match "
      },
      "getPendingMatches()": {
        "notice": "gets the unique ids of all pending matches, in reverse chronological order"
      },
      "matchExists(bytes32)": {
        "notice": "determines whether a match exists with the given id "
      }
    }
  }
}